:030000000208DA19
:0C08DA00787FE4F6D8FD75810902080063
:1008A400E4FDFCC3ED9FEC9E5015E4FBFA0BBB008A
:0F08B400010ABA04F8BBFBF50DBD00010C80E48E
:0108C3002212
:10087D00E4FDFCC3ED9FEE6480F8EC6480985016A7
:10088D00758CFF758AD2D28C308DFDC28DC28C0DC8
:06089D00BD00010C80DD2E
:0108A3002232
:10080000758901C2A7C2A1C2A075080075090DC3F0
:10081000E509941CE5086480948050EDD2A7AF09E7
:10082000AE0812087DC2A77F047E0112087D7FC832
:100830001E1208A4D2A0C2A1900000AF82AE83E431
:10084000FCFD7B607AEAF9F8D31208C44003A38068
:10085000EAC2A0D2A1E4F583F582AF82AE83E4FCC4
:10086000FD7B607AEAF9F8D31208C44003A380EA5A
:0D08700074022509F509E43508F5088092A9
:1008C400EB9FF5F0EA9E42F0E99D42F0EC6480C8AB
:0608D40064809845F0224B
:00000001FF
